{
    "contractName": "stakedRevenueToken",
    "abi": [
        {
            "inputs": [
                {
                    "internalType": "uint256",
                    "name": "tokens",
                    "type": "uint256"
                }
            ],
            "name": "depositTokens",
            "outputs": [],
            "stateMutability": "nonpayable",
            "type": "function"
        },
        {
            "inputs": [],
            "name": "name",
            "outputs": [
                {
                    "internalType": "string",
                    "name": "",
                    "type": "string"
                }
            ],
            "stateMutability": "view",
            "type": "function"
        },
        {
            "inputs": [],
            "name": "withDrawRewards",
            "outputs": [],
            "stateMutability": "nonpayable",
            "type": "function"
        },
        {
            "inputs": [],
            "name": "withdrawTokens",
            "outputs": [],
            "stateMutability": "nonpayable",
            "type": "function"
        },
        {
            "stateMutability": "payable",
            "type": "receive"
        }
    ],
    "bytecode": "60c0604052601560808190527f5374616b6564526576656e7565436f6e7472616374000000000000000000000060a090815261003e9160039190610051565b5034801561004b57600080fd5b506100f2565b828054600181600116156101000203166002900490600052602060002090601f01602090048101928261008757600085556100cd565b82601f106100a057805160ff19168380011785556100cd565b828001600101855582156100cd579182015b828111156100cd5782518255916020019190600101906100b2565b506100d99291506100dd565b5090565b5b808211156100d957600081556001016100de565b6105b0806101016000396000f3fe6080604052600436106100435760003560e01c806306fdde031461008e578063696c81b1146101185780638d8f2adb1461012f578063dd49756e1461014457610089565b3661008957600254610055903461016e565b6002556001546100849061007b9061007534670de0b6b3a76400006101d1565b9061022a565b6000549061016e565b600055005b600080fd5b34801561009a57600080fd5b506100a361026c565b6040805160208082528351818301528351919283929083019185019080838360005b838110156100dd5781810151838201526020016100c5565b50505050905090810190601f16801561010a5780820380516001836020036101000a031916815260200191505b509250505060405180910390f35b34801561012457600080fd5b5061012d6102fa565b005b34801561013b57600080fd5b5061012d610306565b34801561015057600080fd5b5061012d6004803603602081101561016757600080fd5b5035610310565b6000828201838110156101c8576040805162461bcd60e51b815260206004820152601b60248201527f536166654d6174683a206164646974696f6e206f766572666c6f770000000000604482015290519081900360640190fd5b90505b92915050565b6000826101e0575060006101cb565b828202828482816101ed57fe5b04146101c85760405162461bcd60e51b815260040180806020018281038252602181526020018061055a6021913960400191505060405180910390fd5b60006101c883836040518060400160405280601a81526020017f536166654d6174683a206469766973696f6e206279207a65726f000000000000815250610349565b6003805460408051602060026001851615610100026000190190941693909304601f810184900484028201840190925281815292918301828280156102f25780601f106102c7576101008083540402835291602001916102f2565b820191906000526020600020905b8154815290600101906020018083116102d557829003601f168201915b505050505081565b61030460006103eb565b565b61030460016103eb565b610318610471565b6001805482019055336000908152600460205260409020805461033b908361016e565b815560005460019091015550565b600081836103d55760405162461bcd60e51b81526004018080602001828103825283818151815260200191508051906020019080838360005b8381101561039a578181015183820152602001610382565b50505050905090810190601f1680156103c75780820380516001836020036101000a031916815260200191505b509250505060405180910390fd5b5060008385816103e157fe5b0495945050505050565b6103f3610471565b33600090815260046020526040812060028101805492905590821561043e576104203383600001546104be565b33600090815260046020526040812081815560018101829055600201555b604051339082156108fc029083906000818181858888f1935050505015801561046b573d6000803e3d6000fd5b50505050565b336000908152600460205260408120600181015482549192916104a09161049891906104c2565b8354906101d1565b60028301549091506104b2908261016e565b82600201819055505050565b5050565b60006101c883836040518060400160405280601e81526020017f536166654d6174683a207375627472616374696f6e206f766572666c6f770000815250600081848411156105515760405162461bcd60e51b815260206004820181815283516024840152835190928392604490910191908501908083836000831561039a578181015183820152602001610382565b50505090039056fe536166654d6174683a206d756c7469706c69636174696f6e206f766572666c6f77a2646970667358221220565d40a498e97ab2295d1f9ce58a4d427523966c21df50558c4fe96135fa284b64736f6c63430007040033",
    "sourcePath": "/Users/daveappleton/Documents/myProjects/revenue/contracts/revenue.sol",
    "compiler": {
        "name": "solc",
        "version": "0.7.4+commit.3f05b770"
    },
    "functionHashes": {
        "depositTokens(uint256)": "dd49756e",
        "name()": "06fdde03",
        "withDrawRewards()": "696c81b1",
        "withdrawTokens()": "8d8f2adb"
    },
    "gasEstimates": {
        "creation": {
            "codeDepositCost": "291200",
            "executionCost": "infinite",
            "totalCost": "infinite"
        },
        "external": {
            "depositTokens(uint256)": "infinite",
            "name()": "infinite",
            "withDrawRewards()": "infinite",
            "withdrawTokens()": "infinite"
        },
        "internal": {
            "_withdrawRewards(bool)": "infinite",
            "transferTokens(address,uint256)": "13",
            "updateBalance()": "infinite"
        }
    }
}